:020000040800F2
:10000000005000204D1E0008CD1C0008D51C000823
:10001000DD1C0008E51C0008ED1C000800000000C5
:10002000000000000000000000000000F51C0008B7
:10003000011D0008000000000D1D0008191D00082A
:10004000951E0008951E0008951E0008951E0008C4
:10005000951E0008951E0008951E0008951E0008B4
:10006000951E0008951E0008951E0008951E0008A4
:10007000951E0008951E0008951E0008951E000894
:10008000951E0008951E0008951E0008951E000884
:10009000951E0008951E0008951E0008951E000874
:1000A000951E0008951E0008951E0008951E000864
:1000B000951E0008951E0008951E0008951E000854
:1000C000951E0008951E0008951E0008951E000844
:1000D000951E0008951E0008951E0008951E000834
:1000E000951E0008951E0008951E000800000000DF
:1000F0000000000000000000000000000000000000
:0C01000000000000000000005FF808F1A3
:1001100010B5054C237833B9044B13B10448AFF341
:1001200000800123237010BDDC01002000000000CE
:10013000686D000808B5034B1BB103490348AFF3D2
:10014000008008BD00000000E0010020686D00088C
:10015000034613F8012B002AFBD1181A0138704707
:1001600081F0004102E000BF83F0004330B54FEA68
:1001700041044FEA430594EA050F08BF90EA020FD5
:100180001FBF54EA000C55EA020C7FEA645C7FEA68
:10019000655C00F0E2804FEA5454D4EB5555B8BF8B
:1001A0006D420CDD2C4480EA020281EA030382EAFC
:1001B000000083EA010180EA020281EA0303362D8E
:1001C00088BF30BD11F0004F4FEA01314FF4801C61
:1001D0004CEA113102D0404261EB410113F0004F73
:1001E0004FEA03334CEA133302D0524263EB43032A
:1001F00094EA050F00F0A780A4F10104D5F1200EC8
:100200000DDB02FA0EFC22FA05F2801841F1000122
:1002100003FA0EF2801843FA05F359410EE0A5F1F6
:1002200020050EF1200E012A03FA0EFC28BF4CF027
:10023000020C43FA05F3C01851EBE37101F00045DD
:1002400007D54FF0000EDCF1000C7EEB00006EEBEA
:100250000101B1F5801F1BD3B1F5001F0CD3490874
:100260005FEA30004FEA3C0C04F101044FEA4452CB
:1002700012F5800F80F09A80BCF1004F08BF5FEA52
:10028000500C50F1000041EB045141EA050130BD32
:100290005FEA4C0C404141EB0101013C28BFB1F544
:1002A000801FE9D291F0000F04BF01460020B1FA8F
:1002B00081F308BF2033A3F10B03B3F120020CDA62
:1002C0000C3208DD02F1140CC2F10C0201FA0CF040
:1002D00021FA02F10CE002F11402D8BFC2F1200CA5
:1002E00001FA02F120FA0CFCDCBF41EA0C0190405B
:1002F000E41AA2BF01EB0451294330BD6FEA0404A4
:100300001F3C1CDA0C340EDC04F11404C4F120028E
:1003100020FA04F001FA02F340EA030021FA04F3A0
:1003200045EA030130BDC4F10C04C4F1200220FAF7
:1003300002F001FA04F340EA0300294630BD21FA35
:1003400004F0294630BD94F0000F83F4801306BFFB
:1003500081F480110134013D4EE77FEA645C18BFEF
:100360007FEA655C29D094EA050F08BF90EA020F86
:1003700005D054EA000C04BF1946104630BD91EA7E
:10038000030F1EBF0021002030BD5FEA545C05D181
:100390004000494128BF41F0004130BD14F58004C0
:1003A0003CBF01F5801130BD01F0004545F0FE4134
:1003B00041F470014FF0000030BD7FEA645C1ABF69
:1003C000194610467FEA655C1CBF0B46024650EAA0
:1003D000013406BF52EA033591EA030F41F40021CC
:1003E00030BD00BF90F0000F04BF0021704730B552
:1003F0004FF4806404F132044FF000054FF0000127
:1004000050E700BF90F0000F04BF0021704730B5E7
:100410004FF4806404F1320410F0004548BF4042BC
:100420004FF000013EE700BF42004FEAE2014FEA11
:1004300031014FEA02701FBF12F07F4393F07F4FEC
:1004400081F06051704732F07F4208BF704793F0EF
:100450007F4F04BF41F40021704730B54FF4607402
:1004600001F0004521F000411CE700BF50EA010205
:1004700008BF704730B54FF000050AE050EA0102AE
:1004800008BF704730B511F0004502D5404261EB1E
:1004900041014FF4806404F132045FEA915C3FF45F
:1004A000D8AE4FF003025FEADC0C18BF03325FEAFC
:1004B000DC0C18BF033202EBDC02C2F1200300FAAD
:1004C00003FC20FA02F001FA03FE40EA0E0021FAD2
:1004D00002F11444BDE600BF70B54FF0FF0C4CF4C0
:1004E000E06C1CEA11541DBF1CEA135594EA0C0F72
:1004F00095EA0C0F00F0DEF82C4481EA030621EAAD
:100500004C5123EA4C5350EA013518BF52EA0335E7
:1005100041F4801143F4801338D0A0FB02CE4FF099
:100520000005E1FB02E506F00042E0FB03E54FF0C9
:100530000006E1FB03569CF0000F18BF4EF0010EC1
:10054000A4F1FF04B6F5007F64F5407404D25FEABD
:100550004E0E6D4146EB060642EAC62141EA555170
:100560004FEAC52040EA5E504FEACE2EB4F1FD0CB2
:1005700088BFBCF5E06F1ED8BEF1004F08BF5FEA30
:10058000500E50F1000041EB045170BD06F00046E2
:1005900046EA010140EA020081EA0301B4EB5C048F
:1005A000C2BFD4EB0C0541EA045170BD41F4801187
:1005B0004FF0000E013C00F3AB8014F1360FDEBFAC
:1005C000002001F0004170BDC4F10004203C35DA88
:1005D0000C341BDC04F11404C4F1200500FA05F30B
:1005E00020FA04F001FA05F240EA020001F00042AC
:1005F00021F0004110EBD37021FA04F642EB060122
:100600005EEA430E08BF20EAD37070BDC4F10C044B
:10061000C4F1200500FA04F320FA05F001FA04F20F
:1006200040EA020001F0004110EBD37041F10001FB
:100630005EEA430E08BF20EAD37070BDC4F1200506
:1006400000FA05F24EEA020E20FA04F301FA05F26E
:1006500043EA020321FA04F001F0004121FA04F216
:1006600020EA020000EBD3705EEA430E08BF20EAE6
:10067000D37070BD94F0000F0FD101F00046400020
:1006800041EB010111F4801F08BF013CF7D041EAA2
:10069000060195F0000F18BF704703F000465200A6
:1006A00043EB030313F4801F08BF013DF7D043EA77
:1006B0000603704794EA0C0F0CEA135518BF95EA2D
:1006C0000C0F0CD050EA410618BF52EA4306D1D1B4
:1006D00081EA030101F000414FF0000070BD50EAD3
:1006E000410606BF1046194652EA430619D094EA5D
:1006F0000C0F02D150EA013613D195EA0C0F05D147
:1007000052EA03361CBF104619460AD181EA03019A
:1007100001F0004141F0FE4141F470014FF0000052
:1007200070BD41F0FE4141F4780170BD70B54FF0ED
:10073000FF0C4CF4E06C1CEA11541DBF1CEA13556D
:1007400094EA0C0F95EA0C0F00F0A7F8A4EB05044F
:1007500081EA030E52EA03354FEA013100F0888046
:100760004FEA03334FF0805545EA131343EA12630F
:100770004FEA022245EA111545EA10654FEA0026C4
:100780000EF000419D4208BF964244F1FD0404F57D
:10079000407402D25B084FEA3202B61A65EB0305D9
:1007A0005B084FEA32024FF480104FF4002CB6EB96
:1007B000020E75EB030E22BFB61A754640EA0C0016
:1007C0005B084FEA3202B6EB020E75EB030E22BF56
:1007D000B61A754640EA5C005B084FEA3202B6EB97
:1007E000020E75EB030E22BFB61A754640EA9C0056
:1007F0005B084FEA3202B6EB020E75EB030E22BF26
:10080000B61A754640EADC0055EA060E18D04FEAE3
:10081000051545EA16754FEA06164FEAC30343EA83
:1008200052734FEAC2025FEA1C1CC0D111F4801F50
:100830000BD141EA00014FF000004FF0004CB6E749
:1008400011F4801F04BF01430020B4F1FD0C88BFE8
:10085000BCF5E06F3FF6AFAEB5EB030C04BFB6EBF3
:10086000020C5FEA500C50F1000041EB045170BDE6
:100870000EF0004E4EEA113114EB5C04C2BFD4EB13
:100880000C0541EA045170BD41F480114FF0000E97
:10089000013C90E645EA060E8DE60CEA135594EA13
:1008A0000C0F08BF95EA0C0F3FF43BAF94EA0C0F16
:1008B0000AD150EA01347FF434AF95EA0C0F7FF48B
:1008C00025AF104619462CE795EA0C0F06D152EADF
:1008D00003353FF4FDAE1046194622E750EA4106C3
:1008E00018BF52EA43067FF4C5AE50EA41047FF4D4
:1008F0000DAF52EA43057FF4EBAE12E74FF0FF3C39
:1009000006E000BF4FF0010C02E000BF4FF0010C09
:100910004DF804CD4FEA410C7FEA6C5C4FEA430C82
:1009200018BF7FEA6C5C1BD001B050EA410C0CBFD1
:1009300052EA430C91EA030F02BF90EA020F002033
:10094000704710F1000F91EA030F58BF994208BF9A
:1009500090422CBFD8176FEAE37040F00100704757
:100960004FEA410C7FEA6C5C02D150EA013C07D1AE
:100970004FEA430C7FEA6C5CD6D152EA033CD3D0F9
:100980005DF8040B704700BF8446104662468C46F3
:100990001946634600E000BF01B5FFF7B7FF002826
:1009A00048BF10F1000F01BD4DF808EDFFF7F4FF4F
:1009B0000CBF012000205DF808FB00BF4DF808EDDA
:1009C000FFF7EAFF34BF012000205DF808FB00BFFD
:1009D0004DF808EDFFF7E0FF94BF012000205DF81F
:1009E00008FB00BF4DF808EDFFF7CEFF94BF0120D4
:1009F00000205DF808FB00BF4DF808EDFFF7C4FFCD
:100A000034BF012000205DF808FB00BF4FEA410C15
:100A10007FEA6C5C02D150EA013C0AD14FEA430CF8
:100A20007FEA6C5C02D152EA033C02D14FF0000035
:100A300070474FF0010070474FEA410212F5001273
:100A400015D211D56FF47873B3EB625212D94FEA15
:100A5000C12343F0004343EA505311F0004F23FAFF
:100A600002F018BF404270474FF00000704750EA54
:100A7000013005D111F0004008BF6FF00040704711
:100A80004FF00000704700BF80F0004002E000BF60
:100A900081F0004142001FBF5FEA410392EA030F69
:100AA0007FEA226C7FEA236C6AD04FEA1262D2EBB3
:100AB0001363C1BFD218414048404140B8BF5B42B8
:100AC000192B88BF704710F0004F40F4000020F051
:100AD0007F4018BF404211F0004F41F4000121F067
:100AE0007F4118BF494292EA030F3FD0A2F10102B1
:100AF00041FA03FC10EB0C00C3F1200301FA03F1EF
:100B000000F0004302D5494260EB4000B0F5000F11
:100B100013D3B0F1807F06D340084FEA310102F1D0
:100B20000102FE2A51D2B1F1004F40EBC25008BF82
:100B300020F0010040EA03007047490040EB00004C
:100B4000013A28BFB0F5000FEDD2B0FA80FCACF14D
:100B5000080CB2EB0C0200FA0CF0AABF00EBC2507A
:100B600052421843BCBFD0401843704792F0000F68
:100B700081F4000106BF80F400000132013BB5E7BB
:100B80004FEA41037FEA226C18BF7FEA236C21D031
:100B900092EA030F04D092F0000F08BF0846704796
:100BA00090EA010F1CBF0020704712F07F4F04D164
:100BB000400028BF40F00040704712F100723CBF77
:100BC00000F50000704700F0004343F0FE4040F4A1
:100BD000000070477FEA226216BF08467FEA23635F
:100BE0000146420206BF5FEA412390EA010F40F44A
:100BF000800070474FF0000304E000BF10F0004396
:100C000048BF40425FEA000C08BF704743F096437C
:100C100001464FF000001CE050EA010208BF704797
:100C20004FF000030AE000BF50EA010208BF70471E
:100C300011F0004302D5404261EB41015FEA010C33
:100C400002BF84460146002043F0B64308BFA3F12B
:100C50008053A3F50003BCFA8CF2083AA3EBC2530D
:100C600010DB01FA02FC634400FA02FCC2F120022C
:100C7000BCF1004F20FA02F243EB020008BF20F063
:100C80000100704702F1200201FA02FCC2F12002C9
:100C900050EA4C0021FA02F243EB020008BF20EABE
:100CA000DC7070474FF0FF0C1CEAD0521EBF1CEAEC
:100CB000D15392EA0C0F93EA0C0F6FD01A4480EADA
:100CC000010C400218BF5FEA41211ED04FF00063C3
:100CD00043EA501043EA5111A0FB01310CF00040EF
:100CE000B1F5000F3EBF490041EAD3715B0040EA15
:100CF000010062F17F02FD2A1DD8B3F1004F40EBE5
:100D0000C25008BF20F00100704790F0000F0CF0B7
:100D1000004C08BF49024CEA502040EA51207F3A7B
:100D2000C2BFD2F1FF0340EAC250704740F4000056
:100D30004FF00003013A5DDC12F1190FDCBF00F047
:100D400000407047C2F10002410021FA02F1C2F1F5
:100D5000200200FA02FC5FEA310040F1000053EA91
:100D60004C0308BF20EADC70704792F0000F00F0DF
:100D7000004C02BF400010F4000F013AF9D040EAE5
:100D80000C0093F0000F01F0004C02BF490011F479
:100D9000000F013BF9D041EA0C018FE70CEAD15377
:100DA00092EA0C0F18BF93EA0C0F0AD030F0004CF7
:100DB00018BF31F0004CD8D180EA010000F00040AB
:100DC000704790F0000F17BF90F0004F084691F069
:100DD000000F91F0004F14D092EA0C0F01D14202A3
:100DE0000FD193EA0C0F03D14B0218BF084608D16C
:100DF00080EA010000F0004040F0FE4040F40000B6
:100E0000704740F0FE4040F4400070474FF0FF0C48
:100E10001CEAD0521EBF1CEAD15392EA0C0F93EA8F
:100E20000C0F69D0A2EB030280EA010C49024FEAE1
:100E3000402037D04FF0805343EA111143EA10139A
:100E40000CF000408B4238BF5B0042F17D024FF452
:100E5000000C8B4224BF5B1A40EA0C00B3EB510F2D
:100E600024BFA3EB510340EA5C00B3EB910F24BF16
:100E7000A3EB910340EA9C00B3EBD10F24BFA3EB9B
:100E8000D10340EADC001B0118BF5FEA1C1CE0D163
:100E9000FD2A3FF650AF8B4240EBC25008BF20F016
:100EA000010070470CF0004C4CEA50207F32C2BF6A
:100EB000D2F1FF0340EAC250704740F400004FF007
:100EC0000003013A37E792F0000F00F0004C02BF38
:100ED000400010F4000F013AF9D040EA0C0093F002
:100EE000000F01F0004C02BF490011F4000F013B5C
:100EF000F9D041EA0C0195E70CEAD15392EA0C0FC4
:100F000008D142027FF47DAF93EA0C0F7FF470AFFB
:100F1000084676E793EA0C0F04D14B023FF44CAF3E
:100F200008466EE730F0004C18BF31F0004CCAD1D3
:100F300030F000427FF45CAF31F000437FF43CAF0F
:100F40005FE700BF4FF0FF3C06E000BF4FF0010C31
:100F500002E000BF4FF0010C4DF804CD4FEA400213
:100F60004FEA41037FEA226C18BF7FEA236C11D05D
:100F700001B052EA530C18BF90EA010F58BFB2EB10
:100F8000030088BFC81738BF6FEAE17018BF40F090
:100F9000010070477FEA226C02D15FEA402C05D144
:100FA0007FEA236CE4D15FEA412CE1D05DF8040BC9
:100FB000704700BF844608466146FFE70FB5FFF75C
:100FC000C9FF002848BF10F1000F0FBD4DF808ED14
:100FD000FFF7F4FF0CBF012000205DF808FB00BF05
:100FE0004DF808EDFFF7EAFF34BF012000205DF85F
:100FF00008FB00BF4DF808EDFFF7E0FF94BF0120AC
:1010000000205DF808FB00BF4DF808EDFFF7D2FFA8
:1010100094BF012000205DF808FB00BF4DF808EDEB
:10102000FFF7C8FF34BF012000205DF808FB00BFB8
:1010300042000ED2B2F1FE4F0BD34FF09E03B3EB42
:10104000126209D44FEA002343F0004323FA02F06E
:1010500070474FF00000704712F1610F01D142025A
:1010600002D14FF0FF3070474FF00000704700BFD3
:1010700080B588B004AF03463960FB71114B186826
:10108000FB799AB20A2302930223019307F10C031E
:1010900000930123802101F04DFC0346FB73FB7B91
:1010A000002B09D13B7B1BB21B021AB27B7B1BB20C
:1010B00013431AB23B681A80FB7B18461037BD46B3
:1010C00080BD00BFF801002080B586B002AF786017
:1010D000114A7B681360114A07F10C03126811462C
:1010E00019800233120C1A700B4B186807F10C02AE
:1010F0000A2300930323802101F01EFB0346002BEB
:1011000003D0074803F0A2FE02E0064803F09EFE6B
:1011100000BF1037BD4680BDF8010020A06D00085B
:10112000806D0008906D000880B584B000AF034664
:10113000FB71FB795B00DBB2013BDBB207F10E0216
:1011400011461846FFF794FF0346002B02D04FF0DC
:10115000000311E0B7F90E30DB101BB21846FFF7A1
:101160004DFD034606491846FFF79CFD0346054919
:101170001846FFF74BFE034618461037BD4680BDA4
:10118000ACC52738CDCCCC3D80B500AF104803F0BE
:101190005DFE104B104A1A60104B114A1A600D4B3D
:1011A0001B681846FFF740F902460B460D4803F04E
:1011B000E5FD0A4B1B681846FFF736F902460B4659
:1011C000094803F0DBFD094803F040FE00BF80BD85
:1011D000A46D000800000020000070420400002000
:1011E00000003442C46D0008F46D0008246E00084D
:1011F000B0B584B002AF484803F028FE474803F07A
:1012000025FE02214FF4006000F02EFB444803F05D
:101210001DFE02214FF4806000F026FB78607868A4
:10122000FFF7E8FC03463F491846FFF7EFFD03468A
:101230001A463D4B1A603C4B1B681846FFF7F4F802
:1012400002460B46CDE900234FF00002374B796888
:10125000374803F093FD374803F0F8FD02214FF4BF
:10126000006000F001FB344803F0F0FD01214FF471
:10127000805000F0F9FA314803F0E8FD01214FF405
:10128000007000F0F1FA38603868FFF7B3FC0346ED
:101290002B491846FFF7BAFD03461A46294B1A6038
:1012A000284B1B681846FFF7BFF802460B46CDE9EE
:1012B00000234FF00002244B3968244803F05EFD00
:1012C000234803F0C3FD01214FF4805000F0CCFA15
:1012D000204B4FF000021A601F4B4FF000021A60C3
:1012E0001E4803F0B3FD104B1B681846FFF79CF82F
:1012F00004460D46134B1B681846FFF795F8024647
:101300000B46CDE9002322462B46154803F036FD57
:1013100000BF0837BD46B0BD346E0008606E0008DF
:10132000846E00080000C842FC0100200000594003
:10133000AC6E0008D86E0008006F0008206F00082F
:101340000000A0430002002000007440446F000829
:10135000706F0008A0020020A40200209C6F00080B
:10136000B86F000880B588B000AF786007F110034F
:1013700000221A605A609A60DA607B681B681B4A18
:1013800093422FD11A4BDB69194A43F40033D361DE
:10139000174BDB6903F40033FB60FB68144B9B695C
:1013A000134A43F004039361114B9B6903F0040358
:1013B000BB60BB6804233B6102237B610323FB61A9
:1013C00007F1100319460B4800F0D6FE08233B61D5
:1013D00000237B610023BB6107F110031946054818
:1013E00000F0CAFE00BF2037BD4680BD004400406B
:1013F000001002400008014080B500AF00F04CFD35
:1014000000F01EF800F078F800F0F4F800F05EF953
:10141000084803F01BFD0848FFF756FEFFF7B4FE2F
:10142000FFF7E6FE0621054800F080F90023184684
:1014300080BD00BF7C7000084C0200204C72000888
:1014400080B594B000AF07F1280328220021184688
:1014500003F0DAFD07F1140300221A605A609A6063
:10146000DA601A613B1D00221A605A609A60DA60E5
:101470000123BB624FF48033FB6200233B630123F3
:10148000BB6302237B644FF48033BB644FF4E013EF
:10149000FB6407F12803184602F060F80346002BAE
:1014A00001D000F03DF90F237B610223BB610023D3
:1014B000FB614FF480633B6200237B6207F11403FE
:1014C0000221184602F0CCFA0346002B01D000F0AE
:1014D00027F902237B604FF40043FB603B1D184655
:1014E00002F04CFC0346002B01D000F019F900BFBC
:1014F0005037BD4680BD000080B588B000AF07F111
:10150000100300221A605A609A60DA60354B9B69BA
:10151000344A43F004039361324B9B6903F00403A4
:10152000FB60FB682F4B9B692E4A43F008039361D5
:101530002C4B9B6903F00803BB60BB68294B9B697C
:10154000284A43F010039361264B9B6903F0100374
:101550007B607B68234B9B69224A43F001039361C4
:10156000204B9B6903F001033B603B6801224FF471
:1015700000511D4800F084FF4FF400533B610123EC
:101580007B610023BB610223FB6107F11003194655
:10159000154800F0F1FD00224FF4F051134800F01F
:1015A0006FFF4FF4F0533B6101237B610023BB616C
:1015B0000223FB6107F1100319460C4800F0DCFD23
:1015C000C0233B6112237B610023BB610323FB61CA
:1015D00007F110031946064800F0CEFD00BF203782
:1015E000BD4680BD001002400010014000080140CF
:1015F000000C014080B500AF124B134A1A60114B2A
:10160000124A5A600F4B00229A600E4B0022DA6099
:101610000C4B4FF480421A610A4B00225A61094B6D
:1016200000229A61074B0022DA61064B00221A62FF
:10163000044800F03DFF0346002B01D000F070F895
:1016400000BF80BD4C02002000540040801A0600FC
:1016500080B588B000AF786007F1100300221A60EF
:101660005A609A60DA607B681B68154A934223D1FE
:10167000144B9B69134A43F008039361114B9B6918
:1016800003F00803FB60FB68C0233B6112237B610E
:101690000323FB6107F1100319460B4800F06CFDB2
:1016A000084BDB69074A43F40013D361054BDB6940
:1016B00003F40013BB60BB6800BF2037BD4680BD8C
:1016C0000054004000100240000C014080B500AF03
:1016D000114B124A1A60104B4FF4E1325A600E4B14
:1016E00000229A600C4B0022DA600B4B00221A6138
:1016F000094B0C225A61084B00229A61064B0022CA
:10170000DA61054802F0F0FB0346002B01D000F03F
:1017100007F800BF80BD00BF040200200044004065
:1017200080B400AF72B600BF00BFFDE72DE9F04105
:1017300088B004AF78600B467B800023FB814FE0CC
:10174000FA897B889A4204D32A4803F07FFB00235E
:10175000FB81FA8913465B0013449B001A467B68A1
:101760001344BB60FB895E1CB7F80280BB681B6832
:101770001846FEF759FE04460D46BB685B681846DE
:10178000FEF752FE02460B46CDE90223CDE90045A5
:1017900042463146184803F0F1FABB681A68BB6844
:1017A0005B681946104600F00FF90346002B09D07C
:1017B000FB891946114803F0E1FAFFF7E5FCFFF752
:1017C00017FD0DE0BB689B6819460D4803F0D6FA7B
:1017D000BB689B68184600F0C7FBFB890133FB819F
:1017E000FA897B889A42ABD300BF00BF1037BD4651
:1017F000BDE8F08198700008BC700008EC7000082B
:101800001471000880B500AF00224FF4F051024877
:1018100000F036FE00BF80BD0008014080B582B0F8
:1018200000AF0346FB80FFF7EDFF1E2000F09CFB9E
:10183000FB8801221946094800F022FE00F08AFBCD
:101840000346074A136000F085FB0346C833054A88
:10185000136000BF0837BD4680BD00BF00080140CF
:10186000A8020020AC020020F0B591B004AF0346FE
:101870000A46FB8013467B717B79022B02D14A4BCF
:101880001B6801E0494B1B687B62002387F82F30FF
:101890004FF00003BB62FB881846FFF7BFFF00F064
:1018A00059FB386200F056FBF861414B1B68FA693E
:1018B000D31A132BF6D93E4AFB6913607B7918467D
:1018C000FFF732FC03463B491846FFF7EBF90346A6
:1018D00023F00043BB61B96AB869FFF7D9F8034642
:1018E0007B61BB69BB62344B1B68FA699A42D9D3EE
:1018F000796AB869FFF792FB0346002B13D12F4991
:101900007869FFF78BFB0346002B0ED04FF07C511C
:10191000786AFFF7C7F903461946B869FFF77EFBF7
:101920000346002B01D0012300E00023FB74FB7C65
:10193000002B31D097F82F30013387F82F307E7984
:10194000B869FEF771FD04460D467869FEF76CFD37
:1019500002460B4697F82F10012003900291CDE923
:10196000002322462B463146154803F007FA97F824
:101970002F30002B96D0FFF745FFFA693B6AD31A48
:10198000FB607B79FA6819460E4803F0F7F9962058
:1019900000F0EAFAFB6803E0002387F82F3081E7C4
:1019A00018463437BD46F0BD04000020000000207A
:1019B000A802002000007A44AC02002066661641AE
:1019C00038710008647100082DE9B04F94B006AF7B
:1019D00078603960AF4B1B6819467868FFF758F894
:1019E00003463B63AC4B1B6819463868FFF750F859
:1019F0000346FB627868FEF717FD82468B46386B1C
:101A0000FEF712FD04460D463868FEF70DFD8046D0
:101A10008946F86AFEF708FD02460B46CDE9042325
:101A2000CDE90289CDE9004552465B469B4803F06B
:101A3000A5F94FF00001386BFFF7E6FA0346002BDB
:101A400002D04FF4806301E04FF400637B854FF0D8
:101A50000001F86AFFF7D8FA0346002B02D04FF4D2
:101A6000007301E04FF480533B853B6B23F0004350
:101A70008B4A126811461846FFF714F903461846B8
:101A8000FFF7D6FA03467B62FB6A23F00043854AE0
:101A9000126811461846FFF705F903461846FFF786
:101AA000C7FA03463B62FFF7ADFE1E2000F05CFA6A
:101AB0007B6A002B05D07B8D012219467A4800F005
:101AC000DFFC3B6A002B05D03B8D0122194676488E
:101AD00000F0D6FC00F03EFAF861FB69C833BB6148
:101AE0007B6A002B0CBF01230023DBB287F8373061
:101AF0003B6A002B0CBF01230023DBB287F8363092
:101B0000002387F83530002387F83430ACE000F04C
:101B100021FA78617A69FB69D31A3B6197F837300B
:101B2000002B14D13A697B6A9A4210D37B8D002234
:101B300019465D4800F0A4FC012387F83730786827
:101B4000FEF772FC02460B46584803F017F997F867
:101B50003630002B14D13A693B6A9A4210D33B8D40
:101B600000221946504800F08BFC012387F83630DC
:101B70003868FEF759FC02460B464D4803F0FEF864
:101B80004C4B1B687A69D31A132B6AD9494A7B6973
:101B900013607A69BB699A4263D397F83730002B98
:101BA0002DD10220FFF7C0FA034643491846FFF73C
:101BB00079F8034623F00043FB60404B1B6819464D
:101BC000F868FFF72BFA0346002B05D097F835305D
:101BD000013387F8353002E0002387F8353097F875
:101BE0003530002B0BD0FFF70DFEF868FEF71CFC1C
:101BF00002460B46324803F0C1F8012345E097F84E
:101C00003630002B2DD10120FFF78EFA03462A49EA
:101C10001846FFF747F8034623F00043BB60294B03
:101C20001B681946B868FFF7F9F90346002B05D081
:101C300097F83430013387F8343002E0002387F816
:101C4000343097F83430002B0BD0FFF7DBFDB86849
:101C5000FEF7EAFB02460B461B4803F08FF8012310
:101C600013E0052000F080F997F83730002B3FF49F
:101C70004EAF97F83630002B3FF449AF054A7B68EA
:101C80001360054A3B681360002318463837BD4689
:101C9000BDE8B08FA0020020A4020020A8710008B7
:101CA000FC0100200002002000080140E47100084F
:101CB000FC710008A802002000007A440400002003
:101CC00014720008000000203072000880B400AFD9
:101CD00000BFFDE780B400AF00BFFDE780B400AFF8
:101CE00000BFFDE780B400AF00BFFDE780B400AFE8
:101CF00000BFFDE780B400AF00BFBD4680BC7047A9
:101D000080B400AF00BFBD4680BC704780B400AF58
:101D100000BFBD4680BC704780B500AF00F008F939
:101D200000BF80BD80B584B000AFF860B9607A6054
:101D30007B689AB24FF0FF33B968044802F024F987
:101D40007B6818461037BD4680BD00BF04020020E6
:101D500080B400AF01231846BD4680BC704780B5F3
:101D600082B000AF7860396003F0A0F90346162214
:101D70001A604FF0FF3318460837BD4680BD80B467
:101D800083B000AF786000BFFDE780B483B000AFE0
:101D900078604FF0FF3318460C37BD4680BC704763
:101DA00080B483B000AF786039603B684FF4005274
:101DB0005A60002318460C37BD4680BC704780B47B
:101DC00083B000AF7860012318460C37BD4680BC55
:101DD000704780B485B000AFF860B9607A600023C6
:101DE00018461437BD4680BC704780B485B000AF3C
:101DF000F860B9607A60002318461437BD4680BC8D
:101E00007047000080B485B000AF78600A4B1B6853
:101E1000002B02D1084B094A1A60074B1B68FB6074
:101E2000054B1A687B681344034A1360FB68184625
:101E30001437BD4680BC7047B00200200804002063
:101E400080B400AF00BFBD4680BC7047FFF7F8FF0D
:101E50000B480C490C4A002302E0D458C450043308
:101E6000C4188C42F9D3094A094C002301E01360DD
:101E70000432A242FBD303F01FF9FFF7BDFA70470B
:101E800000000020DC01002044760008DC01002076
:101E900004040020FEE7000080B500AF084B1B687B
:101EA000074A43F010031360032000F031F90F20BC
:101EB00000F00EF800F006F80023184680BD00BFC1
:101EC0000020024080B400AF00BFBD4680BC704718
:101ED00080B582B000AF7860124B1A68124B1B7845
:101EE00019464FF47A73B3FBF1F3B2FBF3F31846E0
:101EF00000F035F90346002B01D001230EE07B688A
:101F00000F2B0AD8002279684FF0FF3000F00BF950
:101F1000064A7B681360002300E001231846083757
:101F2000BD4680BD08000020100000200C000020ED
:101F300080B400AF054B1B781A46054B1B68134451
:101F4000034A136000BFBD4680BC704710000020EC
:101F5000B402002080B400AF024B1B681846BD4697
:101F600080BC7047B402002080B584B000AF7860B8
:101F7000FFF7F0FFB8607B68FB60FB68B3F1FF3FE1
:101F800005D00A4B1B781A46FB681344FB6000BF60
:101F9000FFF7E0FF0246BB68D31AFA689A42F7D807
:101FA00000BF00BF1037BD4680BD00BF100000203D
:101FB00080B485B000AF78607B6803F00703FB60F6
:101FC0000C4BDB68BB60BA684FF6FF031340BB6085
:101FD000FB681A02BB68134343F0BF6343F400334A
:101FE000BB60044ABB68D36000BF1437BD4680BCE9
:101FF000704700BF00ED00E080B400AF044BDB6829
:102000001B0A03F007031846BD4680BC704700BF9B
:1020100000ED00E080B483B000AF03463960FB718F
:1020200097F90730002B0ADB3B68DAB20C4997F9C5
:1020300007301201D2B20B4483F800230AE03B6858
:10204000DAB20849FB7903F00F03043B1201D2B264
:102050000B441A7600BF0C37BD4680BC704700BFEA
:1020600000E100E000ED00E080B489B000AFF8606E
:10207000B9607A60FB6803F00703FB61FB69C3F199
:102080000703042B28BF0423BB61FB690433062B21
:1020900002D9FB69033B00E000237B614FF0FF3274
:1020A000BB6902FA03F3DA43BB681A407B699A40C2
:1020B0004FF0FF317B6901FA03F3D9437B680B4092
:1020C000134318462437BD4680BC704780B582B0A4
:1020D00000AF78607B68013BB3F1807F01D30123BF
:1020E0000FE00A4A7B68013B53600F214FF0FF303D
:1020F000FFF790FF054B00229A60044B07221A60FD
:10210000002318460837BD4680BD00BF10E000E040
:1021100080B582B000AF78607868FFF749FF00BFF4
:102120000837BD4680BD80B586B000AF0346B960B4
:102130007A60FB7300237B61FFF75EFF78617A684A
:10214000B9687869FFF790FF024697F90F3011469A
:102150001846FFF75FFF00BF1837BD4680BD80B54A
:1021600082B000AF78607868FFF7B0FF034618468A
:102170000837BD4680BD000080B48BB000AF7860EA
:10218000396000237B6200233B6269E101227B6AA4
:1021900002FA03F3FB613B681B68FA691340BB61F9
:1021A000BA69FB699A4240F058813B685B689A4A79
:1021B00093425ED0984A934275D8984A934258D039
:1021C000964A93426FD8964A934252D0944A934289
:1021D00069D8944A93424CD0924A934263D8924A27
:1021E000934246D0904A93425DD8122B2AD8122BA4
:1021F00059D801A252F823F0732200084D2200089A
:102200005F220008A1220008A7220008A7220008D8
:10221000A7220008A7220008A7220008A72200087A
:10222000A7220008A7220008A7220008A72200086A
:10223000A7220008A7220008A722000855220008AC
:1022400069220008794A934213D02CE03B68DB688E
:102250003B6229E03B68DB6804333B6224E03B6877
:10226000DB6808333B621FE03B68DB680C333B6292
:102270001AE03B689B68002B02D104233B6213E009
:102280003B689B68012B05D108233B627B68FA6998
:102290001A6109E008233B627B68FA695A6103E02E
:1022A00000233B6200E000BFBB69FF2B01D87B68C5
:1022B00001E07B6804337B61BB69FF2B02D87B6A3A
:1022C0009B0002E07B6A083B9B003B617B691A68CC
:1022D0000F213B6901FA03F3DB431A40396A3B697A
:1022E00001FA03F31A437B691A603B685B6803F0E9
:1022F0008053002B00F0B1804D4B9B694C4A43F05A
:10230000010393614A4B9B6903F00103BB60BB6807
:10231000484A7B6A9B08023352F82330FB607B6A91
:1023200003F003039B000F2202FA03F3DB43FA6876
:102330001340FB607B68404A934213D07B683F4A5E
:1023400093420DD07B683E4A934207D07B683D4A5A
:10235000934201D1032306E0042304E0022302E0B8
:10236000012300E000237A6A02F003029200934006
:10237000FA681343FB602F497B6A9B080233FA68B3
:1023800041F823203B685B6803F48013002B06D0E0
:102390002D4B9A682C49BB6913438B6006E02A4B8E
:1023A0009A68BB69DB43284913408B603B685B68D4
:1023B00003F40013002B06D0234BDA682249BB69D3
:1023C0001343CB6006E0204BDA68BB69DB431E4950
:1023D0001340CB603B685B6803F40033002B06D0EE
:1023E000194B5A681849BB6913434B6006E0164BFA
:1023F0005A68BB69DB43144913404B603B685B6818
:1024000003F48033002B21D00F4B1A680E49BB69AF
:1024100013430B6021E000BF0000321000003110B8
:102420000000221000002110000012100000111006
:10243000001002400000014000080140000C014073
:102440000010014000140140000401400B4B1A68C9
:10245000BB69DB43094913400B607B6A01337B6234
:102460003B681A687B6A22FA03F3002B7FF48EAE76
:1024700000BF00BF2C37BD4680BC70470004014040
:1024800080B483B000AF78600B467B8013467B70CE
:102490007B78002B03D07A887B681A6103E07B8805
:1024A0001A047B681A6100BF0C37BD4680BC7047B8
:1024B00080B584B000AF78607B68002B01D1012328
:1024C0002BE17B6893F83D30DBB2002B06D17B68B3
:1024D000002283F83C207868FFF7BAF87B68242252
:1024E00083F83D207B681B681A687B681B6822F0B4
:1024F00001021A607B681B681A687B681B6842F4DB
:1025000000421A607B681B681A687B681B6822F4AB
:1025100000421A6001F0ECFBF8607B685B68814A5E
:10252000934207D8FB68804A934294BF012300235B
:10253000DBB206E0FB687D4A934294BF012300238F
:10254000DBB2002B01D00123E7E0FB68784AA2FB55
:1025500003239B0CBB607B681B685B6823F03F0117
:102560007B681B68BA680A435A607B681B681B6AF1
:1025700023F03F017B685B686A4A934202D8BB68DC
:10258000013309E0BB684FF4967202FB03F3694A1A
:10259000A2FB03239B0901337A6812680B43136281
:1025A0007B681B68DB6923F44F4222F0FF027B68E3
:1025B0005B685C498B4219D8FB68591E7B685B6875
:1025C0005B00B1FBF3F3591C40F6FC730B40002B8E
:1025D0000AD0FB68591E7B685B685B00B1FBF3F3B4
:1025E0000133C3F30B0351E004234FE07B689B6886
:1025F000002B11D1FB68581E7B6859680B465B00A5
:102600000B44B0FBF3F30133C3F30B03002B0CBFFC
:1026100001230023DBB212E0FB68581E7B68596877
:102620000B469B000B4499000B44B0FBF3F30133C2
:10263000C3F30B03002B0CBF01230023DBB2002BE1
:1026400001D0012322E07B689B68002B0ED1FB6840
:10265000581E7B6859680B465B000B44B0FBF3F3D4
:102660000133C3F30B0343F400430FE0FB68581E30
:102670007B6859680B469B000B4499000B44B0FBE8
:10268000F3F30133C3F30B0343F440437968096860
:102690001343CB617B681B681B6823F0C0017B6818
:1026A000DA697B681B6A1A437B681B680A431A60F5
:1026B0007B681B689B6823F4034323F0FF037A685D
:1026C00011697A68D26811437A6812680B43936083
:1026D0007B681B68DB6823F0FF017B685A697B68B5
:1026E0009B691A437B681B680A43DA607B681B6836
:1026F0001A687B681B6842F001021A607B6800223E
:102700001A647B68202283F83D207B6800221A63CC
:102710007B68002283F83E20002318461037BD4610
:1027200080BD00BFA08601007F841E00FF083D0021
:1027300083DE1B43D34D621080B588B002AFF860D2
:102740007A601A460B467B8113463B81FFF702FCF9
:102750007861FB6893F83D30DBB2202B40F0E080DD
:102760007B690093192301227049F86800F0C0FCCE
:102770000346002B01D00223D3E0FB6893F83C30E2
:10278000012B01D10223CCE0FB68012283F83C201D
:10279000FB681B681B6803F00103012B07D0FB6873
:1027A0001B681A68FB681B6842F001021A60FB682C
:1027B0001B681A68FB681B6822F400621A60FB68D9
:1027C000212283F83D20FB68102283F83E20FB681D
:1027D00000221A64FB687A685A62FB683A895A8553
:1027E000FB685B8D9AB2FB681A85FB68504ADA6217
:1027F00079897B693A6AF86800F010FB0346002B80
:1028000001D001238DE000233B61FB681B685B69FD
:102810003B61FB681B689B693B613B6966E07A69C9
:10282000396AF86800F07EFD0346002B0DD0FB6886
:102830001B6C042B07D1FB681B681A68FB681B68BC
:1028400042F400721A6001236BE0FB685B6A1A783D
:10285000FB681B681A61FB685B6A5A1CFB685A625A
:10286000FB685B8D9BB2013B9AB2FB685A85FB68A3
:102870001B8D013B9AB2FB681A85FB681B685B697C
:1028800003F00403042B1BD1FB681B8D002B17D016
:10289000FB685B6A1A78FB681B681A61FB685B6AF5
:1028A0005A1CFB685A62FB685B8D9BB2013B9AB273
:1028B000FB685A85FB681B8D013B9AB2FB681A8541
:1028C0007A69396AF86800F075FD0346002B0DD06F
:1028D000FB681B6C042B07D1FB681B681A68FB683C
:1028E0001B6842F400721A6001231AE0FB681B8D1A
:1028F000002B94D1FB681B681A68FB681B6842F4C4
:1029000000721A60FB68202283F83D20FB680022D9
:1029100083F83E20FB68002283F83C20002300E07F
:10292000022318461837BD4680BD00BF02001000C4
:102930000000FFFF80B58CB002AFF860084611467A
:102940001A4603467B810B463B811346FB800023DE
:102950003B62FFF7FFFA7862FB6893F83D30DBB229
:10296000202B40F050827B6A009319230122824978
:10297000F86800F0BDFB0346002B01D0022343E2C0
:10298000FB6893F83C30012B01D102233CE2FB6849
:10299000012283F83C20FB681B681B6803F00103DD
:1029A000012B07D0FB681B681A68FB681B6842F0A4
:1029B00001021A60FB681B681A68FB681B6822F436
:1029C00000621A60FB68222283F83D20FB684022E7
:1029D00083F83E20FB6800221A64FB683A6B5A6257
:1029E000FB68BA8E5A85FB685B8D9AB2FB681A85C4
:1029F000FB68624ADA62F8883A8979897B6A0193CE
:102A0000BB6B00930346F86800F08AFA0346002B7C
:102A100001D00123F8E1FB681B8D002B13D10023AB
:102A2000FB61FB681B685B69FB61FB681B689B695A
:102A3000FB61FB69FB681B681A68FB681B6842F452
:102A400000721A60CCE1FB681B8D012B1ED1FB6864
:102A50001B681A68FB681B6822F480621A6072B6F1
:102A600000BF0023BB61FB681B685B69BB61FB683F
:102A70001B689B69BB61BB69FB681B681A68FB68C4
:102A80001B6842F400721A6062B635E0FB681B8D69
:102A9000022B1ED1FB681B681A68FB681B6842F496
:102AA00000621A6072B600BF00237B61FB681B687E
:102AB0005B697B61FB681B689B697B617B69FB6869
:102AC0001B681A68FB681B6822F480621A6062B691
:102AD00012E0FB681B681A68FB681B6842F480629E
:102AE0001A6000233B61FB681B685B693B61FB6804
:102AF0001B689B693B613B6972E1FB681B8D032B83
:102B000000F21F81FB681B8D012B23D17A6AB96B00
:102B1000F86800F097FC0346002B01D0012373E115
:102B2000FB681B681A69FB685B6AD2B21A70FB68A3
:102B30005B6A5A1CFB685A62FB681B8D013B9AB2A8
:102B4000FB681A85FB685B8D9BB2013B9AB2FB6800
:102B50005A8545E1FB681B8D022B52D17B6A00939D
:102B6000BB6B00220649F86800F0C2FA0346002B4E
:102B700008D0012348E100BF020010000000FFFF61
:102B80000400010072B600BFFB681B681A68FB688E
:102B90001B6842F400721A60FB681B681A69FB68C4
:102BA0005B6AD2B21A70FB685B6A5A1CFB685A6295
:102BB000FB681B8D013B9AB2FB681A85FB685B8D35
:102BC0009BB2013B9AB2FB685A8562B600BFFB68B4
:102BD0001B681A69FB685B6AD2B21A70FB685B6A91
:102BE0005A1CFB685A62FB681B8D013B9AB2FB685A
:102BF0001A85FB685B8D9BB2013B9AB2FB685A85D4
:102C0000EEE07B6A0093BB6B00228149F86800F01C
:102C10006FFA0346002B01D00123F5E0FB681B6827
:102C20001A68FB681B6822F480621A6072B600BFE3
:102C3000FB681B681A69FB685B6AD2B21A70FB6892
:102C40005B6A5A1CFB685A62FB681B8D013B9AB297
:102C5000FB681A85FB685B8D9BB2013B9AB2FB68EF
:102C60005A856C4B1B68DB086B4AA2FB03231A0ACC
:102C700013469B001344DA00D31A3B623B6A013BC4
:102C80003B623B6A002B18D1FB6800221A63FB6889
:102C9000202283F83D20FB68002283F83E20FB6859
:102CA0001B6C43F02002FB681A6462B600BFFB682D
:102CB000002283F83C200123A6E0FB681B685B69C7
:102CC00003F00403042BD9D1FB681B681A68FB6866
:102CD0001B6842F400721A60FB681B681A69FB6883
:102CE0005B6AD2B21A70FB685B6A5A1CFB685A6254
:102CF000FB681B8D013B9AB2FB681A85FB685B8DF4
:102D00009BB2013B9AB2FB685A8562B600BFFB6872
:102D10001B681A69FB685B6AD2B21A70FB685B6A4F
:102D20005A1CFB685A62FB681B8D013B9AB2FB6818
:102D30001A85FB685B8D9BB2013B9AB2FB685A8592
:102D40004EE07A6AB96BF86800F07CFB0346002B12
:102D500001D0012358E0FB681B681A69FB685B6AB5
:102D6000D2B21A70FB685B6A5A1CFB685A62FB6835
:102D70001B8D013B9AB2FB681A85FB685B8D9BB289
:102D8000013B9AB2FB685A85FB681B685B6903F0DC
:102D90000403042B24D1FB681B8D032B07D1FB6894
:102DA0001B681A68FB681B6822F480621A60FB6863
:102DB0001B681A69FB685B6AD2B21A70FB685B6AAF
:102DC0005A1CFB685A62FB681B8D013B9AB2FB6878
:102DD0001A85FB685B8D9BB2013B9AB2FB685A85F2
:102DE000FB681B8D002B7FF488AEFB68202283F8E4
:102DF0003D20FB68002283F83E20FB68002283F818
:102E00003C20002300E0022318462837BD4680BD41
:102E1000040001000800002089B5F81480B588B0CE
:102E200002AFF8607A603B600B467B81FB68DB6A2F
:102E30007B617B69082B06D07B69012B03D07B6902
:102E400013F5803F08D1FB681B681A68FB681B6894
:102E500042F480721A600BE0FB681B6B122B07D1E7
:102E6000FB681B681A68FB681B6842F480721A6072
:102E70003B6800937B6800224FF00111F86800F076
:102E800037F90346002B0DD0FB681B681B6803F461
:102E90008073B3F5807F03D1FB684FF400721A642E
:102EA000032335E0FB681B69B3F5804F08D17B89AC
:102EB000DBB21A46FB681B6802F0FE021A611BE0D7
:102EC0007B89DB11DBB203F00603DBB263F00F0397
:102ED000DAB2FB681B681A613B687A680E49F868C9
:102EE00000F080F90346002B01D0012310E07B891C
:102EF000DAB2FB681B681A613B687A680749F868B0
:102F000000F070F90346002B01D0012300E00023FC
:102F100018461837BD4680BD0800010002000100B8
:102F200080B588B002AFF860084611461A460346DD
:102F30007B810B463B811346FB80FB681B681A684C
:102F4000FB681B6842F480621A60FB681B681A68A1
:102F5000FB681B6842F480721A607B6A00933B6ACC
:102F600000224FF00111F86800F0C2F80346002B70
:102F70000DD0FB681B681B6803F48073B3F5807F7A
:102F800003D1FB684FF400721A640323AAE07B8923
:102F9000DBB21A46FB681B6802F0FE021A617B6A0C
:102FA0003A6A5249F86800F01DF90346002B01D037
:102FB000012397E000237B61FB681B685B697B61F1
:102FC000FB681B689B697B617B697A6A396AF86870
:102FD00000F0A8F90346002B0DD0FB681B6C042BF6
:102FE00007D1FB681B681A68FB681B6842F4007213
:102FF0001A60012376E0FB88012B05D13B89DAB208
:10300000FB681B681A6121E03B891B0A9BB2DAB29C
:10301000FB681B681A617A6A396AF86800F082F9FD
:103020000346002B0DD0FB681B6C042B07D1FB68FB
:103030001B681A68FB681B6842F400721A6001235F
:1030400050E03B89DAB2FB681B681A617A6A396A18
:10305000F86800F067F90346002B0DD0FB681B6C85
:10306000042B07D1FB681B681A68FB681B6842F4D5
:1030700000721A60012335E0FB681B681A68FB6860
:103080001B6842F480721A607B6A00933B6A0022DC
:103090004FF00111F86800F02BF80346002B0DD01B
:1030A000FB681B681B6803F48073B3F5807F03D152
:1030B000FB684FF400721A64032313E07B89DBB2D0
:1030C00043F00103DAB2FB681B681A617B6A3A6A53
:1030D0000649F86800F086F80346002B01D001236A
:1030E00000E0002318461837BD4680BD02000100ED
:1030F00080B584B000AFF860B9603B601346FB71E7
:1031000048E03B68B3F1FF3F44D0FEF723FF02469F
:10311000BB69D31A3A689A4202D33B68002B39D173
:10312000BB681B0CDBB2012B0DD1FB681B685B6914
:10313000DA43BB6813409BB2002B0CBF0123002372
:10314000DBB21A460CE0FB681B689B69DA43BB687C
:1031500013409BB2002B0CBF01230023DBB21A46A5
:10316000FB799A4216D1FB6800221A63FB68202281
:1031700083F83D20FB68002283F83E20FB681B6C2F
:1031800043F02002FB681A64FB68002283F83C20AD
:10319000012323E0BB681B0CDBB2012B0DD1FB68C4
:1031A0001B685B69DA43BB6813409BB2002B0CBF02
:1031B00001230023DBB21A460CE0FB681B689B6905
:1031C000DA43BB6813409BB2002B0CBF01230023E2
:1031D000DBB21A46FB799A4293D000231846103787
:1031E000BD4680BD80B584B000AFF860B9607A603C
:1031F0003B6071E0FB681B685B6903F48063B3F5B7
:10320000806F23D1FB681B681A68FB681B6842F457
:1032100000721A60FB681B686FF480625A61FB6879
:1032200000221A63FB68202283F83D20FB680022FD
:1032300083F83E20FB681B6C43F00402FB681A64B1
:10324000FB68002283F83C20012367E07B68B3F130
:10325000FF3F41D0FEF77EFE02463B68D31A7A68F4
:103260009A4202D37B68002B36D1BB681B0CDBB2C1
:10327000012B0CD1FB681B685B69DA43BB68134008
:103280009BB2002B14BF01230023DBB20BE0FB68D1
:103290001B689B69DA43BB6813409BB2002B14BFC9
:1032A00001230023DBB2002B16D0FB6800221A6337
:1032B000FB68202283F83D20FB68002283F83E2033
:1032C000FB681B6C43F02002FB681A64FB68002259
:1032D00083F83C20012321E0BB681B0CDBB2012BEF
:1032E0000CD1FB681B685B69DA43BB6813409BB277
:1032F000002B14BF01230023DBB20BE0FB681B682B
:103300009B69DA43BB6813409BB2002B14BF0123B7
:103310000023DBB2002B7FF46DAF0023184610377B
:10332000BD4680BD80B584B000AFF860B9607A60FA
:1033300034E0F86800F0E3F80346002B01D00123E5
:1033400034E0BB68B3F1FF3F28D0FEF703FE02462E
:103350007B68D31ABA689A4202D3BB68002B1DD18E
:10336000FB681B685B6903F08003802B16D0FB6849
:1033700000221A63FB68202283F83D20FB680022AC
:1033800083F83E20FB681B6C43F02002FB681A6444
:10339000FB68002283F83C20012307E0FB681B68E0
:1033A0005B6903F08003802BC3D1002318461037DC
:1033B000BD4680BD80B584B000AFF860B9607A606A
:1033C00034E0F86800F09BF80346002B01D001239D
:1033D00034E0BB68B3F1FF3F28D0FEF7BBFD0246E7
:1033E0007B68D31ABA689A4202D3BB68002B1DD1FE
:1033F000FB681B685B6903F00403042B16D0FB68B1
:1034000000221A63FB68202283F83D20FB6800221B
:1034100083F83E20FB681B6C43F02002FB681A64B3
:10342000FB68002283F83C20012307E0FB681B684F
:103430005B6903F00403042BC3D100231846103743
:10344000BD4680BD80B584B000AFF860B9607A60D9
:1034500049E0FB681B685B6903F01003102B19D16E
:10346000FB681B686FF010025A61FB6800221A6348
:10347000FB68202283F83D20FB68002283F83E2071
:10348000FB681A6CFB681A64FB68002283F83C2016
:10349000012330E0FEF75EFD02467B68D31ABA686E
:1034A0009A4202D3BB68002B1DD1FB681B685B6985
:1034B00003F04003402B16D0FB6800221A63FB6820
:1034C000202283F83D20FB68002283F83E20FB6821
:1034D0001B6C43F02002FB681A64FB68002283F82F
:1034E0003C20012307E0FB681B685B6903F0400395
:1034F000402BAED1002318461037BD4680BD80B4A6
:1035000083B000AF78607B681B685B6903F48063FD
:10351000B3F5806F1BD17B681B686FF480625A61C2
:103520007B6800221A637B68202283F83D207B6839
:10353000002283F83E207B681B6C43F004027B680A
:103540001A647B68002283F83C20012300E00023FA
:1035500018460C37BD4680BC7047000080B586B069
:1035600000AF78607B68002B01D1012372E27B6899
:103570001B6803F00103002B00F08780924B5B680F
:1035800003F00C03042B0CD08F4B5B6803F00C038F
:10359000082B12D18C4B5B6803F48033B3F5803F6A
:1035A0000BD1894B1B6803F40033002B6CD07B6874
:1035B0005B68002B68D101234CE27B685B68B3F544
:1035C000803F06D1804B1B687F4A43F480331360F1
:1035D0002EE07B685B68002B0CD17B4B1B687A4A22
:1035E00023F480331360784B1B68774A23F48023DD
:1035F00013601DE07B685B68B3F5A02F0CD1724BA4
:103600001B68714A43F4802313606F4B1B686E4A3A
:1036100043F4803313600BE06B4B1B686A4A23F45E
:1036200080331360684B1B68674A23F48023136060
:103630007B685B68002B13D0FEF78CFC386108E0D8
:10364000FEF788FC02463B69D31A642B01D9032399
:1036500000E25D4B1B6803F40033002BF0D014E054
:10366000FEF778FC386108E0FEF774FC02463B691F
:10367000D31A642B01D90323ECE1534B1B6803F4E9
:103680000033002BF0D100E000BF7B681B6803F023
:103690000203002B63D04C4B5B6803F00C03002B40
:1036A0000BD0494B5B6803F00C03082B1CD1464B35
:1036B0005B6803F48033002B16D1434B1B6803F087
:1036C0000203002B05D07B681B69012B01D001236D
:1036D000C0E13D4B1B6823F0F8027B685B69DB00AF
:1036E000394913430B603AE07B681B69002B20D0FB
:1036F000364B01221A60FEF72DFC386108E0FEF718
:1037000029FC02463B69D31A022B01D90323A1E10C
:103710002D4B1B6803F00203002BF0D02A4B1B68D3
:1037200023F0F8027B685B69DB00274913430B60D9
:1037300015E0264B00221A60FEF70CFC386108E009
:10374000FEF708FC02463B69D31A022B01D903237A
:1037500080E11D4B1B6803F00203002BF0D17B6856
:103760001B6803F00803002B3AD07B689B69002B91
:1037700019D0174B01221A60FEF7ECFB386108E004
:10378000FEF7E8FB02463B69D31A022B01D903235B
:1037900060E10D4B5B6A03F00203002BF0D00120C7
:1037A00000F0CEFA1CE00A4B00221A60FEF7D2FBB2
:1037B00038610FE0FEF7CEFB02463B69D31A022BBD
:1037C00008D9032346E100BF001002400000424236
:1037D00080044242924B5B6A03F00203002BE9D162
:1037E0007B681B6803F00403002B00F0A680002315
:1037F000FB758B4BDB6903F08053002B0DD1884B9D
:10380000DB69874A43F08053D361854BDB6903F062
:103810008053BB60BB680123FB75824B1B6803F4BC
:103820008073002B18D17F4B1B687E4A43F4807352
:103830001360FEF78FFB386108E0FEF78BFB024652
:103840003B69D31A642B01D9032303E1754B1B6831
:1038500003F48073002BF0D07B68DB68012B06D16A
:103860006F4B1B6A6E4A43F0010313622DE07B68C5
:10387000DB68002B0CD16A4B1B6A694A23F00103F9
:103880001362674B1B6A664A23F0040313621CE051
:103890007B68DB68052B0CD1614B1B6A604A43F0E7
:1038A000040313625E4B1B6A5D4A43F0010313621B
:1038B0000BE05B4B1B6A5A4A23F001031362584B1F
:1038C0001B6A574A23F0040313627B68DB68002BF2
:1038D00015D0FEF73FFB38610AE0FEF73BFB0246DE
:1038E0003B69D31A41F28832934201D90323B1E0F4
:1038F0004B4B1B6A03F00203002BEED014E0FEF7E3
:1039000029FB38610AE0FEF725FB02463B69D31A22
:1039100041F28832934201D903239BE0404B1B6A5A
:1039200003F00203002BEED1FB7D012B05D13C4BB4
:10393000DB693B4A23F08053D3617B68DB69002B52
:1039400000F08780364B5B6803F00C03082B61D0D6
:103950007B68DB69022B46D1334B00221A60FEF7ED
:10396000F9FA386108E0FEF7F5FA02463B69D31A26
:10397000022B01D903236DE0294B1B6803F0007370
:10398000002BF0D17B681B6AB3F5803F08D1244B34
:103990005B6823F400327B689B68214913434B60CA
:1039A0001F4B5B6823F474127B68196A7B685B6A3F
:1039B0000B431B4913434B601B4B01221A60FEF75C
:1039C000C9FA386108E0FEF7C5FA02463B69D31A26
:1039D000022B01D903233DE0114B1B6803F0007358
:1039E000002BF0D035E0104B00221A60FEF7B2FA3F
:1039F000386108E0FEF7AEFA02463B69D31A022BA3
:103A000001D9032326E0064B1B6803F00073002B4B
:103A1000F0D11EE07B68DB69012B07D1012319E09F
:103A20000010024000700040600042420B4B5B6897
:103A3000FB60FB6803F480327B681B6A9A4206D104
:103A4000FB6803F470127B685B6A9A4201D0012321
:103A500000E0002318461837BD4680BD0010024024
:103A600080B584B000AF786039607B68002B01D1ED
:103A70000123D0E06A4B1B6803F007033A689A42BF
:103A800010D9674B1B6823F0070265493B68134355
:103A90000B60634B1B6803F007033A689A4201D03E
:103AA0000123B8E07B681B6803F00203002B20D0E1
:103AB0007B681B6803F00403002B05D0594B5B683F
:103AC000584A43F4E06353607B681B6803F00803C3
:103AD000002B05D0534B5B68524A43F4605353604C
:103AE000504B5B6823F0F0027B689B684D491343A1
:103AF0004B607B681B6803F00103002B40D07B68A0
:103B00005B68012B07D1474B1B6803F40033002B84
:103B100015D101237FE07B685B68022B07D1414B05
:103B20001B6803F00073002B09D1012373E03D4BA8
:103B30001B6803F00203002B01D101236BE0394B1A
:103B40005B6823F003027B685B68364913434B6074
:103B5000FEF700FAF8600AE0FEF7FCF90246FB689F
:103B6000D31A41F28832934201D9032353E02D4BFB
:103B70005B6803F00C027B685B689B009A42EBD1A8
:103B8000274B1B6803F007033A689A4210D2244B74
:103B90001B6823F0070222493B6813430B60204B4C
:103BA0001B6803F007033A689A4201D0012332E010
:103BB0007B681B6803F00403002B08D0194B5B687B
:103BC00023F4E0627B68DB68164913434B607B6833
:103BD0001B6803F00803002B09D0124B5B6823F429
:103BE00060527B681B69DB000E4913434B6000F099
:103BF00021F802460B4B5B681B0903F00F030A49CF
:103C0000CB5C22FA03F3094A1360094B1B68184680
:103C1000FEF75EF9002318461037BD4680BD00BF91
:103C200000200240001002409472000808000020AA
:103C30000C00002080B487B000AF0023FB6000239D
:103C4000BB6000237B6100237B6000233B611E4B34
:103C50005B68FB60FB6803F00C03042B02D0082BAD
:103C600003D027E0194B3B6127E0FB689B0C03F076
:103C70000F03174AD35C7B60FB6803F48033002B8F
:103C800010D0114B5B685B0C03F00103114AD35C4D
:103C9000BB607B680D4A03FB02F2BB68B2FBF3F327
:103CA0007B6104E07B680C4A02FB03F37B617B6968
:103CB0003B6102E0054B3B6100BF3B6918461C3786
:103CC000BD4680BC704700BF0010024000127A0061
:103CD000AC720008BC72000800093D0080B400AF5F
:103CE000024B1B681846BD4680BC70470800002088
:103CF00080B500AFFFF7F2FF0246054B5B681B0A79
:103D000003F007030349CB5C22FA03F3184680BD96
:103D100000100240A472000880B500AFFFF7DEFF7C
:103D20000246054B5B68DB0A03F007030349CB5CE3
:103D300022FA03F3184680BD00100240A472000866
:103D400080B485B000AF78600A4B1B680A4AA2FBBA
:103D500003235B0A7A6802FB03F3FB6000BFFB6886
:103D60005A1EFA60002BF9D100BF00BF1437BD46C0
:103D700080BC704708000020D34D621080B586B02B
:103D800000AF786000233B610023FB607B681B6809
:103D900003F00103002B7DD00023FB754F4BDB6943
:103DA00003F08053002B0DD14C4BDB694B4A43F0A1
:103DB0008053D361494BDB6903F08053BB60BB6820
:103DC0000123FB75464B1B6803F48073002B18D14D
:103DD000434B1B68424A43F480731360FEF7BAF802
:103DE000386108E0FEF7B6F802463B69D31A642B47
:103DF00001D903236DE03A4B1B6803F48073002B59
:103E0000F0D0364B1B6A03F44073FB60FB68002B59
:103E10002ED07B685B6803F44073FA689A4227D01F
:103E20002E4B1B6A23F44073FB602E4B01221A6059
:103E30002C4B00221A60294AFB681362FB6803F0CE
:103E40000103002B14D0FEF785F838610AE0FEF775
:103E500081F802463B69D31A41F28832934201D974
:103E6000032336E01D4B1B6A03F00203002BEED048
:103E70001A4B1B6A23F440727B685B681749134333
:103E80000B62FB7D012B05D1144BDB69134A23F038
:103E90008053D3617B681B6803F00203002B08D0BA
:103EA0000E4B5B6823F440427B689B680B491343CD
:103EB0004B607B681B6803F01003002B08D0074B96
:103EC0005B6823F480027B68DB68044913434B6022
:103ED000002318461837BD4680BD00BF00100240C1
:103EE000007000404004424280B582B000AF78606C
:103EF0007B68002B01D1012342E07B6893F84130BD
:103F0000DBB2002B06D17B68002283F84020786862
:103F1000FDF728FA7B68242283F841207B681B6820
:103F2000DA687B681B6822F40052DA60786800F077
:103F300071F97B681B681A697B681B6822F49042E0
:103F40001A617B681B685A697B681B6822F02A0229
:103F50005A617B681B68DA687B681B6842F4005210
:103F6000DA607B6800225A647B68202283F8412053
:103F70007B68202283F842207B6800225A6300235A
:103F800018460837BD4680BD80B58AB002AFF860DC
:103F9000B9603B601346FB8000237B61FB6893F8AC
:103FA0004130DBB2202B75D1BB68002B02D0FB88DF
:103FB000002B01D101236EE0FB6800225A64FB68EC
:103FC000212283F84120FDF7C5FF7861FB68FA885C
:103FD0009A84FB68FA88DA84FB689B68B3F5805F93
:103FE00008D1FB681B69002B04D10023FB61BB686F
:103FF000BB6103E0BB68FB610023BB612EE03B6853
:1040000000937B6900228021F86800F048F803469D
:10401000002B05D0FB68202283F8412003233AE0DF
:10402000FB69002B0BD1BB691B881A46FB681B6818
:10403000C2F308025A60BB690233BB6107E0FB6947
:104040001A78FB681B685A60FB690133FB61FB68E7
:10405000DB8C9BB2013B9AB2FB68DA84FB68DB8C99
:104060009BB2002BCBD13B6800937B69002240219F
:10407000F86800F014F80346002B05D0FB682022F6
:1040800083F84120032306E0FB68202283F84120C7
:10409000002300E0022318462037BD4680BD80B5CE
:1040A00086B000AFF860B9603B601346FB713BE03F
:1040B0003B6AB3F1FF3F37D0FDF74CFF02463B6848
:1040C000D31A3A6A9A4202D33B6A002B01D10323E6
:1040D0003AE0FB681B68DB6803F00403002B23D085
:1040E000BB68802B20D0BB68402B1DD0FB681B68B1
:1040F0001B6803F00803082B16D100237B61FB68C3
:104100001B681B687B61FB681B685B687B617B6964
:10411000F86800F01DF8FB6808225A64FB6800226A
:1041200083F8402001230FE0FB681B681A68BB6816
:104130001340BA689A420CBF01230023DBB21A462F
:10414000FB799A42B4D0002318461837BD4680BD8B
:1041500080B495B000AF78607B681B680C337B63DC
:104160007B6B53E8003F3B633B6B23F49073FB6432
:104170007B681B680C33FA6C3A64FB63F96B3A6C2E
:1041800041E80023BB63BB6B002BE5D17B681B6858
:1041900014333B623B6A53E8003FFB61FB6923F049
:1041A0000103BB647B681B681433BA6CFA62BB62A0
:1041B000B96AFA6A41E800237B627B6A002BE5D189
:1041C0007B681B6B012B19D17B681B680C33FB6070
:1041D000FB6853E8003FBB60BB6823F010037B64BF
:1041E0007B681B680C337A6CBA617B617969BA6948
:1041F00041E800233B613B69002BE5D17B6820222D
:1042000083F842207B6800221A6300BF5437BD4602
:1042100080BC704780B584B000AF78607B681B6855
:104220001B6923F440517B68DA687B681B680A438A
:104230001A617B689A687B681B691A437B685B69B3
:104240001343BB607B681B68DB6823F4B05323F027
:104250000C037A681268B9680B43D3607B681B68EB
:104260005B6923F440717B689A697B681B680A4329
:104270005A617B681B682C4A934203D1FFF74CFDBF
:10428000F86002E0FFF734FDF860FA6813469B001F
:1042900013449A001A447B685B689B00B2FBF3F3FB
:1042A000224AA2FB03235B091901FA6813469B000B
:1042B00013449A001A447B685B689B00B2FBF3F2DC
:1042C0001A4BA3FB02035B09642000FB03F3D31A20
:1042D0001B013233154AA2FB03235B0903F0F003F1
:1042E0001944FA6813469B0013449A001A447B68E9
:1042F0005B689B00B2FBF3F20C4BA3FB02035B0970
:10430000642000FB03F3D31A1B013233074AA2FBDC
:1043100003235B0903F00F027B681B680A449A6061
:1043200000BF1037BD4680BD003801401F85EB51EE
:10433000002B2DE9F0471D46BBBF03F100431D468E
:1043400000232D2388B01446B8BF1446129A109E3D
:104350001370149BDDF84CA023F02008B8F1460F31
:1043600005D0B8F1450F00D10136022300E0032348
:1043700007AA049206AACDE902A2CDE90036224698
:104380002B4600F059FFB8F1470F074619D1119B92
:10439000DB070ED500EB0609002200232046294644
:1043A000FCF702FB08B1CDF81C903022079B4B456F
:1043B0001ED33846079B159ADB1B136008B0BDE877
:1043C000F087B8F1460F00EB0609E5D10378302BF2
:1043D0000AD10022002320462946FCF7E5FA18B945
:1043E000C6F10106CAF80060DAF800309944D3E754
:1043F000591C07911A70D9E7F7B50029B6BF2D23CC
:104400002B23494209290270437029DD0DF107046D
:1044100025460A27B1FBF7F6224607FB1613303371
:1044200002F8013C0B46632B314604F1FF34F1DC0A
:104430003031931E04F8011C1C46411CAB420AD3C8
:104440000DF109039B1AA54238BF0023821C1344B7
:10445000181A03B0F0BD13F8016B01F8016FEDE716
:10446000302330318370C170031DF1E72DE9F04F27
:1044700091B00C46DDF8688016461F46054600F0F0
:10448000CBFD036818460A93FBF762FE00230E93E8
:10449000D8F8003094F818A0073323F00703F3E8A6
:1044A0000212D4F800B0CDE90812C8F80030134663
:1044B0000A46C4E91223DDE9088323F000490B9082
:1044C0004FF0FF32404649469B4BFCF79FFA70BBCA
:1044D0004FF0FF3240464946974BFCF779FA30BB24
:1044E000DDE9080100220023FCF768FA10B12D2352
:1044F00084F84330914A924BBAF1470F8CBF9046F3
:10450000984603234FF0000923612BF00403236036
:1045100033462146284600970FAA00F0D3F9013010
:1045200040F08F804FF0FF3011B0BDE8F08FDDE933
:10453000082310461946FCF769FA40B1099B814AE5
:10454000002BBCBF2D2384F843307F4BD4E7636836
:104550000AF0DF095A1C3ED10623636000224BF4A7
:104560008063236006920EAACDE904A20DAA0392ED
:104570000DF13302CDE90132636828460093DDE98D
:104580000823FFF7D5FEB9F1470F80460D9929D1D1
:10459000C81C02DB63688B4241DAAAF1020A5FFAA7
:1045A0008AFA5246013904F150000D91FFF724FFB9
:1045B0000E9A81461318012A236102DC2268D20771
:1045C00001D5013323619DF83330002BA0D02D237A
:1045D00084F843309CE7B9F1470FBFD1002BBDD120
:1045E0000123BAE7BAF1650FDBD9BAF1660F18D12A
:1045F000002963680BDD216113B92268D00702D559
:1046000001330B4423614FF00009A165DBE713B9C7
:104610002268D20701D50233F4E70123F2E74FF015
:10462000670A0E9B8B4205DC23682161D807EAD517
:104630004B1CE7E70029CCBF0122C1F10202134461
:10464000E0E723685A0507D42369424631462846E5
:10465000B84701302BD165E7BAF1650F40F2DC8035
:10466000D4E9120100220023FCF79EF9002833D080
:10467000012331462846354AB84701303FF452AF4E
:10468000DDE90D38434502DB2368D8070FD5DDE9A6
:104690000A2331462846B84701303FF443AF4FF074
:1046A000000908F1FF3804F11A0AC84509DC23683B
:1046B0009B0700F10281E0680F9B9842B8BF184643
:1046C00032E70123524631462846B84701303FF4CD
:1046D00029AF09F10109E8E70D9B002B38DC012324
:1046E00031462846194AB84701303FF41BAFDDE98F
:1046F0000D3959EA030302D12368D907D7D5DDE97B
:104700000A2331462846B84701303FF40BAF4FF03B
:10471000000A04F11A0B0D9B5B42534501DC4B462A
:1047200093E701235A4631462846B84701303FF403
:10473000F9AE0AF1010AEEE7FFFFEF7FC27200084F
:10474000BE720008CA720008C6720008CE72000865
:10475000A36DDDF838A05345A8BF5346002B9946FA
:1047600036DC4FF0000B29EAE97904F11A02A36D57
:104770000893A3EB09035B4531DC0D9B9A453ADCBA
:104780002368DA0737D40D9BAAEB0309089BAAEB31
:1047900003039945A8BF9946B9F1000F33DC4FF0E8
:1047A000000829EAE97904F11A0B0D9BAAEB03032F
:1047B000A3EB090343457FF77AAF01235A463146FD
:1047C0002846B84701303FF4ADAE08F10108ECE7E8
:1047D000424631462846B8470130C2D1A2E60123FD
:1047E000314628460892B84701303FF49BAE089AFC
:1047F0000BF1010BBBE73146DDE90A232846B84738
:104800000130C0D18EE6089A4B46314628464244D4
:10481000B8470130C3D185E6DDF838A0BAF1010F01
:1048200001DCDB0736D50123424631462846B8472E
:1048300001303FF477AEDDE90A2331462846B84718
:1048400001303FF46FAED4E91201002200230AF1D7
:10485000FF3AFCF7A9F8C0B9534608F10102314606
:104860002846B84701300CD15CE601235A46314650
:104870002846B84701303FF455AE08F10108D0454D
:10488000F3DB4B4604F15002E0E64FF0000804F180
:104890001A0BF4E701234246E1E701234A46314679
:1048A0002846B84701303FF43DAE08F10108E368FF
:1048B0000F995B1A4345F0DCFDE64FF0000804F168
:1048C0001909F4E72DE9F047164698468A680B69FE
:1048D00007469342B8BF1346336091F843200C4615
:1048E000DDF820900AB1013333602368990642BF96
:1048F000336802333360256815F0060506D104F1EC
:10490000190AE36832689B1AAB422BDC94F84330F7
:104910002268003B18BF0123920630D44146384636
:1049200004F14302C847013023D02368226903F011
:104930000603042B14BF002533684FF0000608BFA0
:10494000E56804F11A0408BFED1A54F8123C08BFD8
:1049500025EAE5759342C4BF9B1AED18B5421AD1FA
:10496000002008E00123524641463846C84701303E
:1049700003D14FF0FF30BDE8F0870135C1E73020AB
:10498000E11881F843005A1C94F845102244023380
:1049900082F84310C2E70123224641463846C84701
:1049A0000130E6D00136D9E72DE9F0430D7E85B020
:1049B000782D904607460C4699460C9E01F143021D
:1049C00007D8622D0AD8002D00F0D780582D00F0AE
:1049D000BC8004F1420684F842503BE0A5F1630339
:1049E000152BF6D801A151F823F000BF454A000865
:1049F000594A0008D3490008D3490008D3490008A0
:104A0000D3490008594A0008D3490008D34900088F
:104A1000D3490008D3490008614B0008834A0008C5
:104A2000134B0008D3490008D3490008834B000802
:104A3000D3490008834A0008D3490008D349000835
:104A40001B4B000833681A1D1B68326004F14206D4
:104A500084F842300123A1E033682068191D3160D9
:104A6000060601D51D6803E04506FBD5B3F90050E5
:104A7000002D03DA2D236D4284F843300A235B486E
:104A800011E021683368080653F8045B02D4490634
:104A900048BFADB23360237E54486F2B5CD10823EE
:104AA000002184F843106668002EA66005DB2168AB
:104AB0002E4321F00401216050D01646B5FBF3F1DE
:104AC00003FB115C10F80CC006F801CDAC46634541
:104AD0000D46F3D9082B0BD12368DB0708D52369D2
:104AE00061689942DEBF302306F8013C06F1FF36CB
:104AF000921B2261434621463846CDF8009003AA16
:104B0000FFF7E0FE01304ED14FF0FF3005B0BDE8B9
:104B1000F083236843F0200323607825344884F829
:104B200045502368316813F0800F51F8045B03D1BE
:104B300013F0400F18BFADB23160D90744BF43F046
:104B4000200323601DB11023AAE72848E7E7236864
:104B500023F020032360F6E70A23A1E71646B9E70E
:104B600033682568181D616930602E061B6801D501
:104B7000196002E06806FBD5198000231646236100
:104B8000B8E7336800211A1D32601E68626830463B
:104B900000F0B9FA08B1801B6060636823610023EC
:104BA00084F84330A6E73246414638462369C84771
:104BB0000130A9D023689B0713D4E068039B984277
:104BC000B8BF1846A2E70123324641463846C847D7
:104BD000013099D00135E36803995B1AAB42F2DCEE
:104BE000EBE7002504F11906F5E700BFD0720008D5
:104BF000E1720008002310B50446C0E90033C0E9A3
:104C00000433836081814366C2818361194608222F
:104C10005C3000F0F9F90D4B246263620C4BA36227
:104C20000C4BE3620C4B23630C4B9C4206D003F10C
:104C30006802944202D0D0339C4205D104F158005E
:104C4000BDE8104000F05CBA10BD00BF5D4E00082A
:104C50007F4E0008B74E0008DD4E0008B802002065
:104C6000024A0349034800F06BB800BF140000205B
:104C70007D6A00082400002041680C4B10B5994261
:104C8000044601D001F0FAFEA168094B994202D016
:104C9000204601F0F3FEE168064B994204D020461D
:104CA000BDE8104001F0EABE10BD00BFB802002010
:104CB00020030020880300200C4B0D4A10B504216E
:104CC0001A600C480022FFF795FF0A4B01221C4690
:104CD000092103F16800FFF78DFF04F1D0000222E3
:104CE000BDE810401221FFF785BF00BFF003002090
:104CF000614C0008B8020020014800F002BA00BF71
:104D0000F9030020014800F0FDB900BFF9030020BD
:104D100010B50446FFF7F0FF236A1BB1BDE8104051
:104D2000FFF7F0BF044B2362044B1B68002BF5D147
:104D3000FFF7C2FFF2E700BF794C0008F003002044
:104D40002DE9F8430746884614460026D4E9019524
:104D5000B9F1010905D52468002CF7D13046BDE82A
:104D6000F883AB89012B07D9B5F90E30013303D095
:104D700029463846C04706436835E9E70FB407B50A
:104D8000064904AB086853F8042B8168019301F0CD
:104D9000E3FC03B05DF804EB04B070472000002092
:104DA000036A70B505460E4684680BB9FFF7B0FF7D
:104DB000636EDB0705D4A389980502D4A06D00F0CB
:104DC000A0F9A389190702D52369002B35D1214603
:104DD000284600F0C5F880B34FF0FF35636EDA0760
:104DE00005D4A3899B0502D4A06D00F08BF9284659
:104DF00070BD002B04DAA269934217DB0A2915D093
:104E000023685A1C22601970A36816F8011F013B21
:104E1000A3600029EDD1002B11DA22460A21284691
:104E200000F060F80130D7D00A25D7E7224628469F
:104E300000F058F80130E7D1CEE7013EE4E72368FF
:104E40005A1C22600A221A70EEE70000024B01464B
:104E50001868FFF7A5BF00BF2000002010B50C4662
:104E6000B1F90E1000F0FEF80028ABBF636DA38906
:104E70001B1823F48053ACBF6365A38110BD2DE9DB
:104E8000F0411F468B890546DB050C46164605D5C5
:104E900002230022B1F90E1000F0D2F8A3893246A5
:104EA00023F48053A38128463B46B4F90E10BDE895
:104EB000F04100F0E9B810B50C46B1F90E1000F061
:104EC000BFF8B4F90C30421C0BBF23F4805343F4F9
:104ED0008053A381A38118BF606510BDB1F90E1086
:104EE00000F09EB8F8B50E461446054618B1036AA0
:104EF0000BB9FFF70DFFA369A360A3891A0701D5BA
:104F0000236943B92146284600F02AF818B14FF02A
:104F1000FF373846F8BD23682269F6B2981A6369EC
:104F20003746834205DC2146284601F0A7FD0028CC
:104F3000EDD1A368013BA36023685A1C22601E7058
:104F40006269431C9A4204D0A389DB07E1D50A2E8B
:104F5000DFD12146284601F091FD0028D9D0D6E7BF
:104F600038B5284B054618680C4618B1036A0BB9CA
:104F7000FFF7CEFEB4F90C301A0721D4D80607D4B7
:104F800009222A6043F040034FF0FF30A38130E054
:104F9000590712D5616B41B104F14403994202D023
:104FA000284600F02FFF002363630022B4F90C3081
:104FB0006260226923F02403226043F00803A38186
:104FC00022693AB99A0501D5180603D52146284623
:104FD00001F0A0FDB4F90C3013F001020AD0002258
:104FE000A26062695242A261226942B913F0800054
:104FF000C8D138BD990758BF6269A260F4E70020A4
:10500000F7E700BF2000002003460244934200D18E
:10501000704703F8011BF9E7004870476001002062
:1050200038B50023054D044608462B60FCF7ADFE5D
:10503000431C02D12B6803B1236038BDF403002068
:1050400038B50446084611460022054D2A601A4626
:10505000FCF7BFFE431C02D12B6803B1236038BDAF
:10506000F403002038B50446084611460022054DD9
:105070002A601A46FCF7B9FE431C02D12B6803B123
:10508000236038BDF403002038B5044608461146B5
:105090000022054D2A601A46FCF744FE431C02D14B
:1050A0002B6803B1236038BDF4030020014B18685E
:1050B000704700BF2000002070B500260C4D0D4B3E
:1050C0005B1B9C10A64209D1002601F04DFE0A4D43
:1050D0000A4B5B1B9C10A64205D170BD55F8043BE2
:1050E00098470136EEE755F8043B98470136F2E75A
:1050F0003C7600083C7600083C76000840760008C4
:10510000704770477047034610B5C9B202449342D6
:10511000184601D1002003E0047801338C42F6D117
:1051200010BD2DE9F74F03690C690746A3427EDBEA
:10513000013CA30000F1140501F11408009305EBF4
:105140008403019358F8243055F8242001339A42FF
:10515000B2FBF3F608EB84092ED34FF0000AC446E5
:10516000AE46D3465CF8043B98B206FB00A01B0C8D
:10517000020C06FB0323DEF8002080B292B2121A62
:105180005A44DEF800004FEA134A9BB2C3EB2243B5
:1051900003EB104392B242EA0342E1454FEA234B4C
:1051A0004EF8042BDED2009BEB582BB9019B043B3D
:1051B0009D421A462FD33C61384601F099F90028E8
:1051C00025DB2946002058F8042BD1F800C01FFA2F
:1051D00082FE1FFA8CF3A3EB0E030344120CC2EB06
:1051E000234202EB1C429BB243EA0243C1454FEA11
:1051F000224041F8043BE6D255F8242005EB840315
:1052000022B9043B9D421A460BD33C61013630461D
:1052100003B0BDE8F08F1268043B002ACBD1013CFB
:10522000C6E71268043B002AEFD1013CEAE7002000
:10523000EEE70000000000002DE9F04F16461F4683
:10524000C26999B08146CDE90E67259C82B91020CC
:1052500000F020FE0246C9F81C0020B9EF21A84B3F
:10526000A84801F0D1FC0023C0E901330360C3600A
:10527000116859B101235268484693404A608B60D7
:1052800000F0FCFE0022D9F81C301A60B7F10008CB
:10529000B5BF01230023236023609B4BBCBF28F0D4
:1052A0000048CDF83C8033EA08031AD142F20F736C
:1052B000249AC8F3130858EA0608136000F07485AE
:1052C000269B53B9914B21E0914B03930833269AC7
:1052D0001360039819B0BDE8F08F8C4B0393033330
:1052E000F5E7DDE90E34CDE90A34DDE90A010022F3
:1052F0000023FBF759FB824650B10123249A136027
:10530000269B13B1834B269A1360834B0393E0E7EC
:1053100016AB019317AB00934846DDE90A2301F071
:105320009BF95FEA1854169D04907BD0DDE90A01D1
:105330000B9BA4F2FF34C3F3130343F07F5343F4F6
:105340004013CDF850A019460022744BFAF70CFF19
:1053500065A3D3E90023FBF7BFF865A3D3E90023D6
:10536000FAF704FF064620460F46FBF74BF862A308
:10537000D3E90023FBF7B0F802460B463046394626
:10538000FAF7F4FE06460F46FBF756FB002280466E
:10539000002330463946FBF711FB48B14046FBF786
:1053A00031F832463B46FBF7FFFA08B908F1FF38FF
:1053B000B8F1160F53D8DDE90A01594B03EBC803C6
:1053C000D3E90023FBF7FAFA00284AD0002308F1BA
:1053D000FF3811932D1B6B1E099349BF0023002733
:1053E000C5F101070993B8F1000F3CDB099BCDF82B
:1053F00040804344099300230C93229B092B64D8DB
:10540000052BC4BF043B2293229BC8BF0024A3F1F9
:105410000203D8BF0124032B00F28680DFE803F0EB
:105420005153362B179C2C4404F23243202BC1BF1E
:10543000C3F1400308FA03F804F2124326FA03F317
:10544000D6BFC3F1200348EA030006FA03F0FAF7D7
:10545000C9FF0122A1F1F873013C149273E7012303
:10546000B7E71190B6E7C8F100030C930023A7EB50
:1054700008071093C1E701230D93239B434408932E
:105480000133012B0593B8BF012306E001230D93DF
:10549000239B002B4BDD0893059300210422D9F8B0
:1054A0001C0002F114059D4246D94160484600F0B7
:1054B000A7FD0390002842D1024640F2AF11194BDC
:1054C000CEE60023E3E70023D6E7012400230D9472
:1054D00022934FF0FF330022089305931223239267
:1054E000DBE700BFAFF3008061436F63A787D23F64
:1054F000B3C8608B288AC63FFB799F501344D33FC3
:10550000FF720008167300080000F07FFB720008AD
:10551000F2720008CF720008CE7200080000F83F57
:10552000687400086E73000801230D93D1E701230E
:105530001A4608930593D2E701315200B1E7D9F832
:105540001C30039A1A60059B0E2B00F2A180002CE0
:1055500000F09E80B8F1000F36DD9F4B08F00F027F
:1055600003EBC20318F4807F4FEA2815D3E900ABA0
:1055700016D0DDE90A01994B0324D3E90823FBF790
:10558000D5F8CDE9060105F00F05944E75B9DDE9B2
:10559000060152465B46FBF7C9F882468B462DE072
:1055A000DDE90A34CDE906340224EEE7E90708D53F
:1055B000D6E9002350465946FAF78EFF82468B46BD
:1055C00001346D100836E1E700F0AD80DDE90A0135
:1055D000C8F10005804B05F00F0203EBC203D3E9CD
:1055E0000023FAF779FF022482468B4600237B4E84
:1055F0002D11002D40F08C80002BCED1119B002B63
:1056000000F09580002250465946754BFBF7D6F9BD
:10561000002800F08C80059B002B00F08880089B00
:10562000002B35DD08F1FF33504659460693002222
:105630006C4BFAF751FF82468B46089E0134204698
:10564000FAF7E0FE52465B46FAF746FF0022664B49
:10565000FAF78CFD0446A1F15075CDE91245002EF4
:1056600069D1002250465946604BFAF77DFD22462B
:105670002B4682468B46FBF7BFF9002840F0998203
:1056800022465046594605F10043FBF797F920BBE7
:10569000179B002BC0F26581B8F10E0F00F36181FA
:1056A0004D4B03EBC803D3E900AB239B002B80F2E7
:1056B000EF80059B002B00F3EB800ED100224B4BBB
:1056C00050465946FAF708FF02460B46DDE90A0143
:1056D000FBF77EF9002800F06F8200252C46239B03
:1056E000039EDB430693274600242946484600F0E4
:1056F000C5FC002F00F0C2802CB1BC4203D0214673
:10570000484600F0BBFC3946484600F0B7FCB5E01F
:10571000EA0705D5D6E90023FAF7DEFE01230134B6
:105720006D10083665E70224DDE90AAB66E7059EE1
:10573000CDF8188083E7284B03EBC60353E9020139
:105740000D9B002B56D002460B4600202849FAF745
:10575000EDFFDDE91223FAF707FD039BCDE9120106
:105760009D191E4659465046FBF766F90446FAF75E
:1057700049FE02460B4650465946FAF7F5FCDDE96C
:105780001223303406F8014B82468B46FBF716F99C
:10579000002873D152465B4600201149FAF7E4FC19
:1057A000DDE91223FBF70AF9002840F0BB80AE4286
:1057B0003FF46EAFDDE9120100220A4BFAF78CFECE
:1057C0000022CDE91201074B50465946FAF784FEF4
:1057D00082468B46C6E700BF687400084074000824
:1057E0000000F03F0000244000001C400000144076
:1057F0000000E03FDDE91223FAF76EFE039BCDE9DE
:1058000012013344039D159359465046FBF714F992
:105810000446FAF7F7FD0B46024659465046FAF79A
:10582000A3FC3034159B05F8014B9D4282468B4604
:1058300027D1DDE91201039B00221E44B54BFAF784
:1058400095FC02460B4650465946FBF7D5F8002812
:1058500068D1DDE912230020AE49FAF785FC024643
:105860000B4650465946FBF7A9F800283FF410AF05
:10587000334616F8012D302AFAD01E46DDF818807E
:105880003EE00022A44BFAF727FE82468B46BBE798
:105890000024039EA04D5246DDE90A015B46FAF75B
:1058A00045FFFBF7C9F80746FAF7ACFD52465B46E1
:1058B000FAF712FE02460B46DDE90A01FAF754FC3C
:1058C00007F1300C06F801CBDDF80CC0DDF814E070
:1058D000A6EB0C0CE64502460B4633D1FAF746FC24
:1058E00052465B4604460D46FBF786F8C0B9524661
:1058F0005B4620462946FBF757F808B1FB070FD453
:105900004846049900F0BAFB0023249A337008F14A
:1059100001031360269B002B3FF4DBAC1E60D8E430
:10592000CDF8188033461E4613F8012D392A06D1CA
:10593000039A9A42F7D1069A013206923022013236
:105940001A709BE722462B46FAF7C6FD02460B4625
:10595000CDE90A2300220023FBF726F800289AD07D
:10596000CEE70D9A002A00F0E380229A012A00F384
:10597000C280149A002A00F0BA8003F233430C9DCF
:105980003E46099A01211A4448461F44099200F0F4
:1059900029FC044656B1099B002B07DDB342A8BF82
:1059A0003346099AFF1AF61AD31A09930C9B0BB3C4
:1059B0000D9B002B00F0C380002D00F0BD80214620
:1059C0002A46484600F0CCFC049A01460446484664
:1059D00000F01EFC04998246484600F04FFB0C9BE9
:1059E0005B1B0C9300F0AE8051460C9A484600F0C9
:1059F000B7FC04900121484600F0F4FB109B0546DB
:105A0000002B00F0D8811A460146484600F0A8FC59
:105A1000229B0546012B00F39D800E9B002B40F03E
:105A200094800F9BC3F31303002B40F08E800F9BD9
:105A300023F000431B0D1B05002B00F089804FF065
:105A4000010A099B013701330993109B002B00F0D9
:105A5000B8812B6905EB8303186900F077FBC0F16F
:105A60002000099B184410F01F007ED0C0F12003D5
:105A7000042B72DD099BC0F11C000344074406445B
:105A80000993002F05DD3A464846049900F0C4FC0E
:105A90000490099B002B05DD29461A46484600F074
:105AA000BBFC0546119B002B61D02946049800F0F1
:105AB0001FFD00285BDA08F1FF3306930A2200235A
:105AC0004846049900F0FCFA0D9B0490002B00F06E
:105AD0007A81002321460A22484600F0F1FA089B09
